{
  "contractName": "ContentManagement",
  "abi": [
    {
      "anonymous": false,
      "inputs": [
        {
          "indexed": false,
          "internalType": "uint256",
          "name": "id",
          "type": "uint256"
        },
        {
          "indexed": false,
          "internalType": "address",
          "name": "author",
          "type": "address"
        },
        {
          "indexed": false,
          "internalType": "string",
          "name": "ipfsHash",
          "type": "string"
        },
        {
          "indexed": false,
          "internalType": "uint256",
          "name": "timestamp",
          "type": "uint256"
        }
      ],
      "name": "ContentCreated",
      "type": "event"
    },
    {
      "anonymous": false,
      "inputs": [
        {
          "indexed": false,
          "internalType": "uint256",
          "name": "id",
          "type": "uint256"
        },
        {
          "indexed": false,
          "internalType": "address",
          "name": "voter",
          "type": "address"
        }
      ],
      "name": "ContentDownvoted",
      "type": "event"
    },
    {
      "anonymous": false,
      "inputs": [
        {
          "indexed": false,
          "internalType": "uint256",
          "name": "id",
          "type": "uint256"
        },
        {
          "indexed": false,
          "internalType": "address",
          "name": "voter",
          "type": "address"
        }
      ],
      "name": "ContentUpvoted",
      "type": "event"
    },
    {
      "inputs": [
        {
          "internalType": "uint256",
          "name": "",
          "type": "uint256"
        }
      ],
      "name": "contents",
      "outputs": [
        {
          "internalType": "uint256",
          "name": "id",
          "type": "uint256"
        },
        {
          "internalType": "address",
          "name": "author",
          "type": "address"
        },
        {
          "internalType": "string",
          "name": "ipfsHash",
          "type": "string"
        },
        {
          "internalType": "uint256",
          "name": "timestamp",
          "type": "uint256"
        },
        {
          "internalType": "uint256",
          "name": "upvotes",
          "type": "uint256"
        },
        {
          "internalType": "uint256",
          "name": "downvotes",
          "type": "uint256"
        }
      ],
      "stateMutability": "view",
      "type": "function",
      "constant": true
    },
    {
      "inputs": [],
      "name": "nextContentId",
      "outputs": [
        {
          "internalType": "uint256",
          "name": "",
          "type": "uint256"
        }
      ],
      "stateMutability": "view",
      "type": "function",
      "constant": true
    },
    {
      "inputs": [
        {
          "internalType": "string",
          "name": "ipfsHash",
          "type": "string"
        }
      ],
      "name": "createContent",
      "outputs": [],
      "stateMutability": "nonpayable",
      "type": "function"
    },
    {
      "inputs": [
        {
          "internalType": "uint256",
          "name": "id",
          "type": "uint256"
        }
      ],
      "name": "upvoteContent",
      "outputs": [],
      "stateMutability": "nonpayable",
      "type": "function"
    },
    {
      "inputs": [
        {
          "internalType": "uint256",
          "name": "id",
          "type": "uint256"
        }
      ],
      "name": "downvoteContent",
      "outputs": [],
      "stateMutability": "nonpayable",
      "type": "function"
    }
  ],
  "bytecode": "0x608060405234801561001057600080fd5b50610ae6806100206000396000f3fe608060405234801561001057600080fd5b50600436106100575760003560e01c80630a248d7f1461005c578063497cc8411461007a578063b5ecf91214610096578063cb09e681146100cb578063f7edb62d146100e7575b600080fd5b610064610103565b604051610071919061078d565b60405180910390f35b610094600480360381019061008f919061066c565b610109565b005b6100b060048036038101906100ab91906106ad565b61024c565b6040516100c29695949392919061081d565b60405180910390f35b6100e560048036038101906100e091906106ad565b610330565b005b61010160048036038101906100fc91906106ad565b61043e565b005b60005481565b6040518060c0016040528060005481526020013373ffffffffffffffffffffffffffffffffffffffff16815260200182815260200142815260200160008152602001600081525060016000805481526020019081526020016000206000820151816000015560208201518160010160006101000a81548173ffffffffffffffffffffffffffffffffffffffff021916908373ffffffffffffffffffffffffffffffffffffffff16021790555060408201518160020190805190602001906101d192919061054c565b50606082015181600301556080820151816004015560a082015181600501559050507f412c27a7318aac9979dd1ff80a6b3eb3bc35c9a8c22b7b75d7959605180ab9ac60005433834260405161022a94939291906107d1565b60405180910390a1600080815480929190610244906109b2565b919050555050565b60016020528060005260406000206000915090508060000154908060010160009054906101000a900473ffffffffffffffffffffffffffffffffffffffff169080600201805461029b90610980565b80601f01602080910402602001604051908101604052809291908181526020018280546102c790610980565b80156103145780601f106102e957610100808354040283529160200191610314565b820191906000526020600020905b8154815290600101906020018083116102f757829003601f168201915b5050505050908060030154908060040154908060050154905086565b600073ffffffffffffffffffffffffffffffffffffffff166001600083815260200190815260200160002060010160009054906101000a900473ffffffffffffffffffffffffffffffffffffffff1673ffffffffffffffffffffffffffffffffffffffff1614156103d6576040517f08c379a00000000000000000000000000000000000000000000000000000000081526004016103cd9061076d565b60405180910390fd5b6001600082815260200190815260200160002060050160008154809291906103fd906109b2565b91905055507fbe947b4f45d419f621ba105d9ca70059f4d06fd67ef71cbb08c1596722aaf7ef81336040516104339291906107a8565b60405180910390a150565b600073ffffffffffffffffffffffffffffffffffffffff166001600083815260200190815260200160002060010160009054906101000a900473ffffffffffffffffffffffffffffffffffffffff1673ffffffffffffffffffffffffffffffffffffffff1614156104e4576040517f08c379a00000000000000000000000000000000000000000000000000000000081526004016104db9061076d565b60405180910390fd5b60016000828152602001908152602001600020600401600081548092919061050b906109b2565b91905055507f4db9dc80e8bfa70f3434d4cd192f786a1b29a14109f06c9998fd19f499d3232a81336040516105419291906107a8565b60405180910390a150565b82805461055890610980565b90600052602060002090601f01602090048101928261057a57600085556105c1565b82601f1061059357805160ff19168380011785556105c1565b828001600101855582156105c1579182015b828111156105c05782518255916020019190600101906105a5565b5b5090506105ce91906105d2565b5090565b5b808211156105eb5760008160009055506001016105d3565b5090565b60006106026105fd846108b6565b610885565b90508281526020810184848401111561061a57600080fd5b61062584828561093e565b509392505050565b600082601f83011261063e57600080fd5b813561064e8482602086016105ef565b91505092915050565b60008135905061066681610a99565b92915050565b60006020828403121561067e57600080fd5b600082013567ffffffffffffffff81111561069857600080fd5b6106a48482850161062d565b91505092915050565b6000602082840312156106bf57600080fd5b60006106cd84828501610657565b91505092915050565b6106df81610902565b82525050565b60006106f0826108e6565b6106fa81856108f1565b935061070a81856020860161094d565b61071381610a88565b840191505092915050565b600061072b6016836108f1565b91507f436f6e74656e7420646f6573206e6f74206578697374000000000000000000006000830152602082019050919050565b61076781610934565b82525050565b600060208201905081810360008301526107868161071e565b9050919050565b60006020820190506107a2600083018461075e565b92915050565b60006040820190506107bd600083018561075e565b6107ca60208301846106d6565b9392505050565b60006080820190506107e6600083018761075e565b6107f360208301866106d6565b818103604083015261080581856106e5565b9050610814606083018461075e565b95945050505050565b600060c082019050610832600083018961075e565b61083f60208301886106d6565b818103604083015261085181876106e5565b9050610860606083018661075e565b61086d608083018561075e565b61087a60a083018461075e565b979650505050505050565b6000604051905081810181811067ffffffffffffffff821117156108ac576108ab610a59565b5b8060405250919050565b600067ffffffffffffffff8211156108d1576108d0610a59565b5b601f19601f8301169050602081019050919050565b600081519050919050565b600082825260208201905092915050565b600061090d82610914565b9050919050565b600073ffffffffffffffffffffffffffffffffffffffff82169050919050565b6000819050919050565b82818337600083830152505050565b60005b8381101561096b578082015181840152602081019050610950565b8381111561097a576000848401525b50505050565b6000600282049050600182168061099857607f821691505b602082108114156109ac576109ab610a2a565b5b50919050565b60006109bd82610934565b91507fffffffffffffffffffffffffffffffffffffffffffffffffffffffffffffffff8214156109f0576109ef6109fb565b5b600182019050919050565b7f4e487b7100000000000000000000000000000000000000000000000000000000600052601160045260246000fd5b7f4e487b7100000000000000000000000000000000000000000000000000000000600052602260045260246000fd5b7f4e487b7100000000000000000000000000000000000000000000000000000000600052604160045260246000fd5b6000601f19601f8301169050919050565b610aa281610934565b8114610aad57600080fd5b5056fea264697066735822122076f646e58ab4597eeb28e42639ec18937611ca52659899c3f9b3c6d0db2e659f64736f6c63430008000033",
  "immutableReferences": {},
  "source": "// SPDX-License-Identifier: MIT\r\npragma solidity ^0.8.0;\r\n\r\ncontract ContentManagement {\r\n    struct Content {\r\n        uint256 id;\r\n        address author;\r\n        string ipfsHash;\r\n        uint256 timestamp;\r\n        uint256 upvotes;\r\n        uint256 downvotes;\r\n    }\r\n\r\n    uint256 public nextContentId;\r\n    mapping(uint256 => Content) public contents;\r\n\r\n    event ContentCreated(uint256 id, address author, string ipfsHash, uint256 timestamp);\r\n    event ContentUpvoted(uint256 id, address voter);\r\n    event ContentDownvoted(uint256 id, address voter);\r\n\r\n    function createContent(string memory ipfsHash) public {\r\n        contents[nextContentId] = Content(nextContentId, msg.sender, ipfsHash, block.timestamp, 0, 0);\r\n        emit ContentCreated(nextContentId, msg.sender, ipfsHash, block.timestamp);\r\n        nextContentId++;\r\n    }\r\n\r\n    function upvoteContent(uint256 id) public {\r\n        require(contents[id].author != address(0), \"Content does not exist\");\r\n        contents[id].upvotes++;\r\n        emit ContentUpvoted(id, msg.sender);\r\n    }\r\n\r\n    function downvoteContent(uint256 id) public {\r\n        require(contents[id].author != address(0), \"Content does not exist\");\r\n        contents[id].downvotes++;\r\n        emit ContentDownvoted(id, msg.sender);\r\n    }\r\n}",
  "sourcePath": "C:\\Users\\moham\\OneDrive\\Documents\\GitHub\\CRYPTOVERSE_CONJURERS\\contracts\\ContentManagement.sol",
  "compiler": {
    "name": "solc",
    "version": "0.8.0+commit.c7dfd78e.Emscripten.clang"
  },
  "schemaVersion": "3.4.16",
  "updatedAt": "2024-05-18T11:08:58.268Z",
  "networkType": "ethereum",
  "devdoc": {
    "kind": "dev",
    "methods": {},
    "version": 1
  },
  "userdoc": {
    "kind": "user",
    "methods": {},
    "version": 1
  }
}